:020000040800F2
:10000000D0AF0020610200080B2E00081127000865
:10001000092E0008A1050008293100080000000091
:10002000000000000000000000000000A101000826
:10003000F906000800000000FD010008192E000864
:100040007B0200087B0200087B0200087B0200089C
:100050007B0200087B0200087B0200087B0200088C
:100060007B0200087B0200087B0200087B0200087C
:100070007B0200087B0200087B0200087B0200086C
:100080007B0200087B0200087B0200087B0200085C
:100090007B0200087B0200087B0200087B0200084C
:1000A0007B0200087B0200087B0200087B0200083C
:1000B0007B0200087B0200087B0200087B0200082C
:1000C0007B0200087B0200087B0200087B0200081C
:1000D0007B0200087B0200087B0200087B0200080C
:1000E0007B0200087B0200087B0200087B020008FC
:1000F0007B0200087B0200087B0200087B020008EC
:100100007B0200087B0200087B0200087B020008DB
:100110007B0200087B020008DD2E00087B0200083D
:100120007B0200087B0200087B0200087B020008BB
:100130007B020008A50700087B0200087B0200087C
:100140007B0200087B0200087B0200087B0200089B
:100150007B0200087B0200087B0200087B0200088B
:100160007B0200087B0200087B0200087B0200087B
:100170007B0200087B0200087B02000800000000F0
:100180007B0200087B020008DFF810D000F036F98F
:1001900000480047597B0008AFF30080D0AF002033
:1001A0002C4B19680868B0E8F04F80F30988BFF35A
:1001B0006F8F4FF0000080F311887047000000003F
:1001C00008480068006880F308884FF0000080F35A
:1001D000148862B661B6BFF34F8FBFF36F8F00DF35
:1001E00000BF00BF08ED00E0DFF80C00016841F43B
:1001F00070010160704700BF88ED00E0EFF30980F7
:10020000BFF36F8F134B1A681EF0100F08BF20ED5D
:10021000108A20E9F04F106009B44FF0500080F3CD
:100220001188BFF34F8FBFF36F8F12F03BFF4FF07A
:10023000000080F3118809BC19680868B0E8F04F25
:100240001EF0100F08BFB0EC108A80F30988BFF3CE
:100250006F8F704738000020EFF305807047000073
:100260000648804706480047FEE7FEE7FEE7FEE750
:10027000FEE7FEE7FEE7FEE7FEE7FEE7CD2E00081D
:10028000890100082DE9F05F0546002092469B4653
:1002900088460646814640241BE02846414647469C
:1002A000224600F09BF853465A46C01A914110D39B
:1002B00011461846224600F082F82D1A67EB010815
:1002C0004F4622460120002100F079F817EB000983
:1002D0004E41201EA4F10104DFDC484631462A4687
:1002E0004346BDE8F09F000000487047B440010855
:1002F0000649074A0868504343F23902104408602F
:1003000040087047014908607047000074010020F0
:100310006D4EC64110B5431A934209D2831888180E
:1003200003E010F8011D03F8011D521EF9D210BDA3
:1003300040EA01039B0703D009E008C9121F08C067
:10034000042AFAD203E011F8013B00F8013B521EE7
:10035000F9D210BDD2B201E000F8012B491EFBD248
:1003600070470022F6E710B513460A4604461946C0
:10037000FFF7F0FF204610BD30B5044600200346CD
:1003800000E05B1C934203D2E05CCD5C401BF8D0E4
:1003900030BD30B50B46014600202022012409E083
:1003A00021FA02F59D4205D303FA02F5491B04FA2E
:1003B00002F52844151EA2F10102F1DC30BD202A0D
:1003C00004DB203A00FA02F1002070479140C2F1AC
:1003D000200320FA03F3194390407047202A04DBDE
:1003E000203A21FA02F00021704721FA02F3D040AE
:1003F000C2F120029140084319467047064C074D50
:1004000006E0E06840F0010394E8070098471034E4
:10041000AC42F6D3FFF7BCFEE04101080042010800
:1004200070B58C1810F8015B15F0070301D110F8B6
:10043000013B2A1106D110F8012B03E010F8016BE3
:1004400001F8016B5B1EF9D12B0705D40023521E66
:100450000DD401F8013BFAE710F8013BCB1A921CCE
:1004600003E013F8015B01F8015B521EF9D5A142CC
:10047000D8D3002070BD0000464910B54A6822F468
:1004800040324A604A6843681A434A6001684A68D1
:1004900022F480724A6001684A68036942EA0322D2
:1004A0004A6001684A6822F040724A6001684A68FE
:1004B00083681A434A6001688A6822F400628A608D
:1004C00001688A68C3681A438A60816A6FF0706243
:1004D000D14201688A6822F070628A6001688A6885
:1004E0000CD0836A1A438A6001688A6822F04052FD
:1004F0008A6001688A68C36A1A4301E022F04052A8
:100500008A6001688A6822F002028A6001688A684B
:10051000037E42EA43028A6090F8201000290168B5
:100520004A680FD042F400624A6001684A6822F4C7
:1005300060424A6001684A68174C436A04EB4333DF
:100540001A4301E022F400624A600168CA6A22F498
:100550007002CA620168CA6A838B104C04EB0353B1
:100560001A43CA6201688A6822F400728A600168CC
:100570008A6890F8303042EA43228A6001688A68CB
:1005800022F480628A6001688A68406942EA8020B9
:10059000886010BD0023014000E0FFFF0000F0FF75
:1005A000FEE7000070B5002407F014FB124D04E0D4
:1005B000641CE4B2012000F0A1F80221284601F0F9
:1005C0003BF810B1642CF3D30FE0642C0DD200245F
:1005D00004E0641CE4B2012000F090F802212846F7
:1005E00001F02AF818B1642C04D3012070BD642CEA
:1005F000EFD3FAE7002070BD0010024070B5002470
:10060000134D04E0641CE4B2012000F077F80221ED
:10061000284601F011F808B1642CF3D3002404E05B
:10062000641CE4B2012000F069F80221284601F0C0
:1006300003F808B9642CF3D3282000F05FF80221F6
:10064000284600F0F9FF002800D0012070BD00000E
:100650000010024070B5002004464006050EFFF76A
:10066000CDFF641C2843E4B2082CF6D370BD000013
:100670002DE9FC41044600F027F8FFF793FF01261F
:1006800000BB00254FEA0D07FFF7E4FF78556D1C0E
:10069000EDB2052DF8D39DF800309DF801209DF8AE
:1006A00002109DF803009D180F183D449DF804703A
:1006B000BD4207D1E37122726171A07100206072A6
:1006C000BDE8FC816672FBE710B507F093FA094CB0
:1006D00000220221204600F0B4FF142000F0F6FAB8
:1006E00001220221204600F0ACFFBDE810401E2090
:1006F00000F004B8001002407047000030B5144903
:100700000A68156A41F211131D4240F2444406D1B1
:10071000156A254203D1156825F0010515600D689D
:1007200000226A620A68156845F0010515600968CB
:100730004A6A92B28242FBD3086A184206D1086A1A
:10074000204203D1086820F00100086030BD00009D
:1007500080350020064908B509684FF4FA52B1FB0C
:10076000F2F14143009100BF491E0091FBD208BD48
:100770003400002038B50446006800F580508169D7
:1007800041F480118161206800F5805080690090FB
:100790000120FFF7DFFF2068009900F5805081619C
:1007A00038BD0000014800F05EBB0000AC34002002
:1007B0002DE9F041044621B14FF40060E060C00033
:1007C000A060E0690025002861D02A462368402601
:1007D00019683C480140D4E902073843104340F40B
:1007E00000700843186020680768012000F06EFA66
:1007F000206807602068466020684668012000F095
:1008000065FA20684660206885602068C5602168B8
:1008100088694FF64172104040F08000886120687E
:100820008669012000F052FA206886612068C5615F
:100830002068C569012000F049FA2068C561216877
:1008400001F580518869204A1040204A02438A619C
:10085000206800F580508569012000F037FA206893
:1008600000F5805085612068194900F580500160CD
:10087000206800F580500568012000F027FA206804
:1008800000F580500560A069012803D009E04FF40D
:1008900080629BE7206800F58050C1690D4A1143D2
:1008A000C16160690C4A818811640178C37841EAAA
:1008B0000361837840781B0443EA002001435164BC
:1008C000BDE8F0810F8120FF233FDEF80400200205
:1008D0008020C102400001000080024070470000FB
:1008E00078B50024009490F83C20012A19D0012208
:1008F00080F83C200A6807230568092A13D9EE68A6
:100900000A3A02EB420293409E43EE600B788A68FB
:100910000A3B03EB43039A400368DD682A43DA602D
:1009200010E0022078BD2E6902EB420293409E4304
:100930002E610B788A6803EB43039A4003681D69B4
:100940002A431A614A681F23072A13D205686E6B6F
:10095000521E02EB820293409E436E630B790A881B
:100960005B1E92B203EB83039A4003685D6B2A43DC
:100970005A6327E005680D2A12D22E6BD21F02EBB4
:10098000820293409E432E630B790A88DB1F92B24A
:1009900003EB83039A4003681D6B2A431A6311E03B
:1009A000EE6A0D3A02EB820293409E43EE620B79AF
:1009B0000A880D3B92B203EB83039A400368DD6A19
:1009C0002A43DA62164B0568144A9D4206D10D6827
:1009D000122D03D1556845F48005556005689D4288
:1009E00018D10B68102B01D0112B13D1536843F48D
:1009F00000035360096810290CD10A490A4A0968A2
:100A0000B1FBF2F101EB8101490000E0491E0091C8
:100A10000029FBD180F83C40002078BD0023014034
:100A2000002001403400002040420F000068C06CEC
:100A3000704770B504004FF0000503D0206C00260D
:100A400010B107E0012070BD204600F01DF866647B
:100A500084F83C60206CC00610D4206C20F48850D0
:100A600040F0020020642046FFF706FD6664206C1B
:100A700020F0020040F00100206400E0012584F82D
:100A80003C60284670BD000010B586B004461421B5
:100A90006846FFF766FC1149206888421CD110485F
:100AA0000021026842F480720260006800F48070E5
:100AB00005900B481438026842F004020260006896
:100AC00000F004000590012000900320CDE9010111
:100AD0006946044800F0BAFC06B010BD0020014091
:100AE00044380240000802402DE9F0410446006805
:100AF0000D4681684FF0000749050BD58068C00599
:100B000008D5206C40F02000206484F83C7001205F
:100B1000BDE8F08100F09AFD064613E0681C11D094
:100B200025B100F093FD801BA8420BD92068006816
:100B3000800707D4206C40F00400206484F83C70E7
:100B40000320E5E7206800688007E7D521686FF09B
:100B500012000860206C40F40070206420688168F6
:100B600011F0405F13D1217E89B9C16A11F4700F71
:100B700002D0806840050AD4206C20F48070206484
:100B8000206CC00403D4206C40F0010020640020DD
:100B9000BEE7000018B50021009190F83C20012A22
:100BA00007D0012280F83C2002689368DB0702D05E
:100BB00011E0022018BD936843F0010393602E4AB0
:100BC0002E4B1268B2FBF3F202EB420200E0521E1F
:100BD0000092002AFBD102689368DB0742D0036CC5
:100BE00040F20164A34343F48073036453685B05DC
:100BF00005D5036C23F4005343F480530364036C62
:100C0000DB0404D5436C23F00603436400E0416435
:100C100080F83C101A496FF022031360496800689D
:100C2000CA06184906D0884224D1816811F0405F75
:100C300013D01FE08842F8D0134A904203D1D1F874
:100C40000423D206F1D0114A904213D1D1F80413F3
:100C500001F01F011029E8D30CE0816841F08041C8
:100C6000816007E0016C41F010010164416C41F0CA
:100C700001014164002018BD3400002040420F00F3
:100C800000230140002001400021014000220140DA
:100C900090F83C1001290CD0012180F83C1001682B
:100CA0008A6822F001028A6001688968C90702D057
:100CB00007E002207047016C21F4885141F00101E6
:100CC0000164002180F83C100846704770B5044666
:100CD00000F0BCFC0546601C02D0044800780444C7
:100CE00000F0B4FC401BA042FAD370BD28000020E5
:100CF0002DE9F04390F845400025012C0DD04FF030
:100D0000010C80F845C0022480F8444044F2F457B6
:100D10004FF000495E1E816217E00220BDE8F083BB
:100D200001EB4514C4F80090C5EBC51808EB480862
:100D300002EB8808C4E90178B54204D204F1200826
:100D4000C4F80C8000E0E1606D1C9D42E8D30268AD
:100D500002F58052D16080F844C0002180F845102F
:100D60000846DBE72DE9F043914690F84520002442
:100D7000012A0AD0012680F84560022280F844202A
:100D80004FF4801C5D1EC1621BE00220BDE8F083B1
:100D900001EB4412C2F800C0C4EBC41707EB4708CC
:100DA00009EB88079760C7691FB9176847F44007C0
:100DB0001760AC4203D202F12007D76000E0D16097
:100DC000641C9C42E4D3026802F58052116180F8F1
:100DD0004460002180F845100846D7E7704730B5D9
:100DE00090F845100023012908D0012280F8452001
:100DF000022180F844100024816A1AE0022030BDEC
:100E00000D685B1CC5F30125022D0AD00D6815F491
:100E1000407F09D04163836B5B1C8363012B12D03D
:100E200012E08263016302E0856B6D1C8563C96813
:100E300081620D68002D01DB042BE1D300F8442F03
:100E40004470012030BD01630B68C3F30D431B1FC9
:100E5000C363036B9B680364C96840F8281F02776B
:100E60004477002030BD70B50446006800F580501E
:100E700041694FF0000549064FF0010608D52046AC
:100E800000F0DAF92068402100F58050416109E066
:100E90004069C0070AD0204600F09AFA206800F5A1
:100EA0008050466184F8446084F8455020684FF4CF
:100EB000803100F580504161206800F58050406924
:100EC00000040CD52046FFF789FF20684FF400414D
:100ED00000F58050416184F8446084F8455070BD4D
:100EE0002DE9FC474FF000060400B146009603D000
:100EF00094F8440018B107E00120BDE8FC8784F8AD
:100F00004560204600F0E2F86648016841F48041FF
:100F10000160006800F4804001906348016821F49A
:100F2000000101600168226A11430160206800F538
:100F30008050016841F00101016000F087FB054627
:100F40004FF4FA7709E000BF00F080FB401BB84285
:100F500003D9032004F8440F67E0206800F58050AF
:100F60000068C007F0D12068006920F01C0500F07F
:100F700063FF4E494E4A0144914202D245F00805B2
:100F800016E04C494C4A0144914202D245F00C050E
:100F90000EE04A494A4A0144914209D3494908446A
:100FA0004949884202D245F0040501E045F01005A8
:100FB000206805614FF400420021204600F00AFA43
:100FC0000125A8BBFF20FFF781FE606888B300F011
:100FD0003DFB804641F288376A460121204600F0F9
:100FE000E9F800F033FBA0EB0800B84217D80098EE
:100FF0004007F1D54FF480520021204600F0EAF975
:10100000B0B900F023FB80466A460121204600F07B
:10101000D1F800F01BFBA0EB0800B8420AD901216F
:101020002046FFF7C5FB04F8445F0320667064E7C1
:1010300024E018E000988006E6D56A461F21204685
:1010400000F0B8F8D0B90098C10603D54FF400619C
:10105000E16000E0E660400701D5A66019E04FF4CA
:101060008040A06015E0E068A168C00840EA510037
:1010700082B20021204600F0ADF930B101212046B6
:10108000FFF796FB84F8445036E740F6FF70FFF711
:101090001DFE49462046FFF78BFB84F84450002094
:1010A0002BE70000443802400438014000D3CEFE54
:1010B000C0E1E40040F1E9FD40787D0100796CFC7D
:1010C000005A6202001F0AFA80F0FA02F0B587B0F7
:1010D000044614216846FFF744F9314920688842E4
:1010E0005BD130480024016841F000710160016863
:1010F00001F000710591016841F0806101600168B3
:1011000001F080610591016841F0006101600168B2
:1011100001F000610591016841F00401016001687E
:1011200001F004010591016841F0010101600168CD
:1011300001F001010591016841F0020101600068C0
:10114000022500F0020005903220CDE9000502AA38
:1011500003260B2782E8D0006946134800F076F991
:101160008620CDE9000502AA694682E8D0000F4832
:1011700000F06CF94FF46050CDE9000502AA694611
:1011800082E8D0000A4800F061F9002205213D20E4
:1011900000F066FD3D2000F055FD07B0F0BD0000F9
:1011A0000080024030380240000802400000024047
:1011B000000402402DE9F047044690F844009146AF
:1011C00082281DD0822084F84400226810694FF6DE
:1011D000FF7500F01C03208A05EAC02018434FF475
:1011E000F86303EA8111014321F0020040F0010598
:1011F000156100F02BFA064601274FF4803810E005
:101200000220BDE8F08700BF00F020FA801B4045B7
:1012100005D304F8447F002060700320F1E72068C4
:101220000569E807F0D12068406981B2C9F800106B
:1012300084F844700020E4E70148006808F02CBE00
:1012400024000020F8B5044690F84500012839D064
:10125000012584F84550022084F8440020680026C7
:10126000016841F00801016020680068009028468C
:10127000FFF770FA2168009808602068016841F063
:10128000040101602068006800900120FFF762FA05
:101290002168009808602046FFF76CFA206800F586
:1012A0008050816941F400518161206800F58050CF
:1012B000816941F00201816184F8445084F84560FD
:1012C0000020F8BD0220F8BDF0B590F845200023BD
:1012D000012A11D0012780F84570022280F84420AD
:1012E000002459B1C66A3268002A0ADA122100F8CD
:1012F000441F44700120F0BD0220F0BD00F8447F7F
:10130000F7E740F2F455A9420BD9B1FBF5FCB1FB6C
:10131000F5F205FB1C1CBCF1000F00D0521C012A89
:1013200043D1326842F040523260C26AC1F30C01CC
:101330005160C16A0A6842F000420A60C16AC96825
:10134000C16234E0D6F800C02CF0405CC6F800C0A2
:1013500033B9C66AD6F800C04CF0805CC6F800C04D
:10136000C66A7560561EB34214D1C66AD6F800C06C
:101370004CF0005CC6F800C0C2F10106C6EBC61610
:1013800006EB4606D0F82CC001EB8606C6F30C0629
:10139000CCF80460C66AD6F800C04CF0004CC6F821
:1013A00000C0C66A5B1CF668C6629342CAD3016875
:1013B00001F580514A69520705D504224A61016846
:1013C00001F580514C6000F8447F44700020F0BD6E
:1013D000704700002DE9F041044690F8440042288F
:1013E0001ED0422084F84400236818694FF6FF7627
:1013F00000F01C05208A06EAC02028434FF4F86557
:1014000005EA8111014390B241F00305586120685B
:10141000056100F01BF9064601274FF4803810E003
:101420000220BDE8F08100BF00F010F9801B4045AC
:1014300005D304F8447F002060700320F1E72068A2
:101440000569E807F0D184F84470EAE72DE9F84F20
:10145000DFF8B8A1002201250AF1040B03264FF0A2
:101460000F090BF1040E00BF0B6805FA02F42340CC
:10147000A3426FD10F7907F00307012F01D0022F8C
:1014800016D187684FEA420806FA08FC27EA0C07DB
:10149000D1F80CC00CFA08FC4CEA070CC0F808C0E4
:1014A0004768A7430C79C4F3001494403C4344605C
:1014B0000C79E443A4070AD0C4684FEA420C06FA48
:1014C0000CF7BC438F6807FA0CF72743C7600C7909
:1014D00004F00304022C12D1D40800EB840CDCF8D5
:1014E00020405707FF0E09FA07F824EA0804D1F84C
:1014F000108008FA07F848EA0408CCF8208004684D
:101500004FEA420C06FA0CF7BC430F7907F00307C9
:1015100007FA0CF7274307604C68E40070D53C4C91
:10152000276847F480472760246822F0030704F403
:1015300080440094374C07EB040CDCF8084897070C
:101540004FEA177809FA08F7BC43334FB84202D183
:10155000002724E054E0314FB84201D101271EE0BA
:101560002F4FB84201D1022719E02E4FB84201D1C6
:10157000032714E02C4FB84201D104270FE02B4F72
:10158000B84201D105270AE0294FB84201D1062708
:1015900005E0284FB84201D1072700E0082707FAE5
:1015A00008F72743CCF80878DAF800405746D1F816
:1015B00004C09C435FEACC3C00D51C433C60DBF894
:1015C00000405F46D1F804C09C435FEA8C3C00D5E4
:1015D0001C433C60DEF800407746D1F804C09C43D1
:1015E0005FEACC2C00D51C433C60084F0C373C68AC
:1015F000D1F804C09C435FEA8C2C00D51C433C60AE
:10160000521C102AFFF430AFBDE8F88F003C0140B7
:101610004438024000300140000002400004024013
:1016200000080240000C024000100240001402407A
:1016300000180240001C02400069084000D0012050
:1016400070470AB1816170470904FBE7014880686F
:10165000704700002800002070B5040025D094F8E1
:101660003D00002520B984F83C50204600F03EFAA9
:10167000242084F83D002068016821F00101016008
:101680002068016841F4004101602068016821F48C
:101690000041016000F0D6FB4D4A6168914201D8DB
:1016A0004C4900E04C49884201D2012070BD4B49B1
:1016B0002368B0FBF1F15E6826F03F060E435E60E2
:1016C0006368934206D94FF4967359434FF47A7383
:1016D000B1FBF3F12368491C1E6A26F03F06314333
:1016E00019626168914210D84900401EB0FBF1F2C6
:1016F000521CC2F30B02042A01D2042022E0B0FBE8
:10170000F1F0401CC0F30B001CE0A268F2B301EB47
:10171000C10303EB0116431EB3FBF6F35B1C43F45A
:1017200080431B0549D092B301EBC10202EB0111CA
:10173000401EB0FBF1F0401CC0F30B0040F48040B1
:1017400040F400402168CA694CF6FF739A43104385
:10175000C861D4E9071001432068026822F0C00282
:1017600011430160D4E9030101432068826848F213
:10177000FF339A4311438160D4E90501084321688E
:10178000CA6822F0FF021043C86001E00EE016E0D4
:101790002068016841F0010101602564202084F87F
:1017A0003D00256384F83E50002070BD01EB4106EA
:1017B000431EB3FBF6F35B1CB3E70120C2E701EB6A
:1017C0004101401EB0FBF1F0401CC0F30B00B7E735
:1017D000A086010080841E0000093D0040420F00E9
:1017E0002DE9F84F1F4690468A460446DDF82890BA
:1017F000FFF72CFF054694F83D00202875D11923EA
:1018000001226C492046009501F084F80028F5D1AA
:1018100094F83C00012868D0012084F83C0020683E
:101820000168C90703D1016841F001010160206826
:10183000016821F400610160222084F83D0010203D
:1018400084F83E0000262664C4F824806785608DF5
:1018500020855948E0622B464A465146204600F012
:101860006FFF002878D1208D544F68B1012814D023
:1018700002282068016816D041F480610160206868
:1018800041698069009087E0206841698169009121
:10189000016841F4007101607EE02068016821F474
:1018A00080610160F0E721F48061016020680168D7
:1018B00041F40061E2E7032848D801280AD0022851
:1018C00014D04B46002239462046009501F022F8FC
:1018D000D8BB27E02A464946204601F09AF8A0BB2B
:1018E00020680069616A08704DE061E04B460022A3
:1018F00039462046009501F00DF830BB206801689C
:1019000041F40071016020680069616A0870606AD2
:10191000401C6062218D491E2185618D491E6185B3
:1019200021682EE02068016821F480610160206850
:101930000069616A0870606A401C6062208D401E08
:101940002085608D401E6085D0E705E02A46494627
:10195000204601F05EF810B10120BDE8F88F206844
:101960000069616A0870606A401C6062218D491ECE
:101970002185618D491E618521684A69D2435207DC
:101980000AD409690170606A401C6062208D401EA3
:101990002085608D401E6085208D00288BD1202001
:1019A00084F83D0084F83E6084F83C600020D4E771
:1019B0000220D2E7020010000000FFFF0400010037
:1019C0002DE9F84F1F4690468A460446DDF82890D8
:1019D000FFF73CFE054694F83D0020287FD11923EF
:1019E000012240492046009500F094FF002876D15E
:1019F00094F83C00012872D0012084F83C00206853
:101A00000168C90703D1016841F001010160206844
:101A1000016821F400610160212084F83D0010205C
:101A200084F83E0000262664C4F824806785608D13
:101A300020852D48E0622B464A465146204600F05C
:101A4000F5FE90B9206841698069009036E02A4629
:101A50004946204601F010F850B1206C042804D10A
:101A60002068016841F4007101600120BDE8F88F31
:101A7000606A216800780861606A401C6062618D5C
:101A8000491E6185218D491E89B2218522685369CD
:101A9000DB435B070BD451B100781061606A401CD6
:101AA0006062608D401E6085208D401E20852A4624
:101AB0004946204600F008FF0028CED1208D00289E
:101AC000C5D154F83D0B016841F40071016020203C
:101AD00004F81E09E67766770020C7E7FFE70220D3
:101AE000C4E70000020010000000FFFF10B586B040
:101AF000044614216846FEF734FC134920688842E6
:101B000020D11248016841F0020101600068694675
:101B100000F002000590C0200090122001900120EA
:101B2000029003200390042004900948FFF78EFCE4
:101B300006481030016841F400110160006800F4AB
:101B40000010059006B010BD00540040303802402F
:101B500000040240024881680278114481607047A5
:101B6000280000200B4810B5016841F400710160A5
:101B7000016841F480610160016841F48071016095
:101B8000032000F08DF8002000F006F800F03EF889
:101B9000002010BD003C024010B5014688B0002274
:101BA000362000F05DF8362000F04CF81348002491
:101BB000016841F010010160006805A900F0100003
:101BC0000690684600F018F900F03CF90C49400016
:101BD000B0FBF1F10C480B4A491E026040F2E732BB
:101BE000C0E90324C0E9011400F07CFB10B101201E
:101BF00008B010BD044800F0B7FBF9E740380240D8
:101C000040420F0000100040383500200C4882B0E0
:101C1000016841F480410160006800F48040009058
:101C20000748001F016841F08051016000680022F0
:101C300000F0805000900F21901E02B000F010B80C
:101C400044380240002809DB00F01F0201219140C6
:101C50004009800000F1E020C0F80011704700004A
:101C6000F0B40E4B1B680C46C3F30223C3F1070507
:101C7000042D00D90425191D072901D2002300E0F5
:101C8000DB1E012606FA05F1491E214099409E40BF
:101C9000761E16403143F0BC01F06CBA0CED00E04A
:101CA000064900F0070208684FF6FF03184040EAB3
:101CB0000220034A10430860704700000CED00E06A
:101CC0000000FA052DE9F0470E46050065D0DFF863
:101CD0001481D8F80000F7B200F00700B04207D234
:101CE00088F80070D8F8000000F00700B04254D126
:101CF00028683D4C810712D5400703D5206840F481
:101D0000E05020602878000703D5206840F4604048
:101D100020602068A96820F0F0000843206028783F
:101D2000C0072DD0304968680839012812D0022830
:101D300013D0032811D00968890700292DDA2168FA
:101D400021F0030101432160FFF780FC814641F24D
:101D5000883A0EE009688903EFE709688901ECE732
:101D6000FFF774FCA0EB0901514502D90320BDE83F
:101D7000F0872068696800F00C00B0EB810FEFD1AC
:101D8000D8F80010404601F00701B14207D90770AA
:101D9000006800F00700B04201D00120E7E7287892
:101DA000400705D52068E96820F4E050084320602A
:101DB0002878000706D52068296920F4604040EAA9
:101DC000C100206000F05EF82168084AC1F30311E9
:101DD000515CC8400649086006480068FFF7DCFE11
:101DE0000020C4E7003C0240083802406C3E010875
:101DF000340000202C0000200F2202600C4A1368DF
:101E000003F003034360136803F0F0038360136877
:101E100003F4E053C36012684FF4E05303EAD202C4
:101E200002610448006800F0070008607047000085
:101E300008380240003C024001480068704700003A
:101E4000340000200448054900680968044AC1F3C9
:101E50008221515CC840704734000020083802409D
:101E60007C3E01080448054900680968044AC1F33A
:101E70004231515CC84070473400002008380240AD
:101E80007C3E0108154810B5006810F00C0214489B
:101E900013D04110042A0FD0082A0ED10F4C241F52
:101EA0002268236802F03F025B0207D52068C0F376
:101EB0008810A0FB010106E0084610BD2168C1F3AF
:101EC0008811A1FB00010023FEF7DCF92168C1F3B2
:101ED0000141491C4900B0FBF1F010BD0838024037
:101EE0000024F4002DE9F84F04006ED02078DFF8CC
:101EF0004C93C007A9F104054AD009F10400016818
:101F0000C1F38101012908D00068C0F381000228D3
:101F10000AD1D9F80000400206D52868800337D5D9
:101F200060680028E1D033E06068B0F5803F10D0F1
:101F3000B0F5A02F286810D020F4803028602868E1
:101F400020F4802028606068A8B1FFF77FFB064678
:101F50000DE0286840F48030F4E740F480202860E9
:101F6000F7E700BFFFF772FB801B642873D828686F
:101F70008003F7D50CE0FFF769FB064605E000BFDC
:101F8000FFF764FB801B6428F0D828688003F7D42F
:101F90002078DFF8AC8280074FF0000A3ED5A748D2
:101FA000001D016811F00C0F08D00068C0F381001B
:101FB00002280BD1D9F80000400207D42868800716
:101FC00016D5E068012800D112E033E1E068B8B12D
:101FD0000120C8F80000FFF739FB064605E000BF06
:101FE000FFF734FB801B0228C0D828688007F7D58C
:101FF0002868216920F0F80040EAC10028600DE05F
:10200000C8F800A0FFF722FB064604E0FFF71EFB1E
:10201000801B02281FD828688007F7D42078000783
:1020200022D5864F87486169703771B101210160FF
:10203000FFF70CFB064604E0FFF708FB801B0228B5
:1020400009D838688007F7D50EE0C0F800A0FFF780
:10205000FDFA064605E082E0FFF7F8FA801B022849
:102060007DD838688007F7D42078400768D5DFF836
:10207000CCB100270BF13C0BDBF80000C0000BD407
:10208000DBF8001041F08051CBF80010DBF80000C5
:10209000012700F0805000906B4E3068C00510D4CE
:1020A000306840F480703060FFF7D0FA009005E0AF
:1020B000FFF7CCFA0099401A022850D83068C005C2
:1020C000F6D55E4EA0686C3601280FD00528306822
:1020D00010D020F001003060306820F00400306043
:1020E000A068B8B1FFF7B2FA00900FE0306840F096
:1020F0000100F4E740F004003060F7E7FFF7A6FACC
:102100000099411A41F28830814266D830688007D0
:10211000F4D50EE0FFF79AFA009007E0FFF796FA81
:102120000099411A41F28830814256D830688007C0
:10213000F4D42FB1DBF8001021F08051CBF800105F
:10214000A069C8B33D49091D0968C1F3810102298D
:102150004AD00228504607D0C8F8600000E03CE0B2
:10216000FFF774FA04463BE04746C8F86000FFF703
:102170006DFA064605E000BFFFF768FA801B0228EB
:102180002BD828688001F7D4D4E907010843A16A55
:102190002E4A490802EB0141626A41EA8211084372
:1021A00094F82C1040EA0161C9F80010012038664B
:1021B000FFF74CFA044606E03EE000BFFFF746FAA0
:1021C000001B022809D828688001F7D534E000BF39
:1021D000FFF73CFA001B022802D90320BDE8F88F64
:1021E00028688001F4D427E00128F7D0D9F800004E
:1021F000E26900F4800191421CD1226A00F03F01A3
:10220000914217D147F6C071626A0140B1EB821F5B
:1022100010D1A26A4FF0FF3300F4403103EB5202B9
:10222000B1EB024F06D194F82C1000F07060B0EBC7
:10223000016F01D00120D1E70020CFE70438024030
:1022400000004742800E4742007000400000FFFF40
:102250007047704770B590F83C20012A32D00124B5
:1022600080F83C40022280F83D2003685A689D684F
:1022700022F070060A6832435A60134B02689A4291
:1022800014D0B2F1804F11D0104B9A420ED0104BA7
:102290009A420BD00F4B9A4208D00F4B9A4205D06E
:1022A0000E4B9A4202D00E4B9A4204D1496825F057
:1022B00080031943916080F83D40002180F83C1074
:1022C000084670BD022070BD0000014000040040BF
:1022D00000080040000C00400004014000400140A4
:1022E0000018004010B5040003D094F83D0010B170
:1022F00007E0012010BD002084F83C00204600F0DB
:102300001FF8022084F83D00211D206800F0ECFD3C
:10231000012084F8460084F83E0084F83F0084F8E9
:10232000400084F8410084F8420084F8430084F8B7
:10233000440084F8450084F83D00002010BD0000F2
:1023400008B500680649884208D10648016841F08E
:1023500002010160006800F00200009008BD00006A
:10236000000400404038024090F83D10012901D09F
:1023700001207047022180F83D100168CA6842F0D0
:102380000102CA6000681149884214D0B0F1804F40
:1023900011D00F4988420ED00E4988420BD00E4909
:1023A000884208D00D49884205D00D49884202D0A4
:1023B0000C49884204D1816801F00701062903D045
:1023C000016841F0010101600020704700000140F8
:1023D0000004004000080040000C004000040140E0
:1023E000004001400018004070B5044690F83C00E1
:1023F000012817D0012584F83C50022084F83D00C4
:102400002068826822F0770222F47F4282600868A6
:10241000502830D00DDC20284DD005DC98B3102892
:102420003BD148E0022070BD302844D0402834D150
:1024300039E0602828D0702806D0B0F5805F2CD015
:10244000B0F5005F29D10AE0CB68D1E9012120680D
:1024500000F0AEFD2068816841F0770109E0CB68AB
:10246000D1E90121206800F0A3FD2068816841F4D2
:102470008041816011E0CA684968206800F0AAFDC7
:102480005021206807E016E0CA684968206800F01B
:10249000B2FD6021206800F095FD84F83D500020D9
:1024A00084F83C0070BDCA684968206800F092FD5D
:1024B00040212068EFE7226801461046EBE77047AD
:1024C00070B50446006801694FF00005C9438907EB
:1024D00015D4C168C943890711D4E91E01610120DF
:1024E0002077206880698007204602D0FFF7E7FF49
:1024F00004E000F098F8204600F096F82577206870
:102500000169C943490717D4C168C943490713D4AE
:102510006FF004010161022020772068806910F4C7
:10252000407F204602D0FFF7CAFF04E000F07BF8AE
:10253000204600F079F8257720680169C94309072A
:1025400016D4C168C943090712D46FF008010161AC
:10255000042020772068C0698007204602D0FFF75A
:10256000AEFF04E000F05FF8204600F05DF825774C
:1025700020680169C943C90617D4C168C943C9069F
:1025800013D46FF010010161082020772068C06922
:1025900010F4407F204602D0FFF791FF04E000F0E6
:1025A00042F8204600F040F8257720680169C943C9
:1025B000C90708D1C168C943C90704D1891E01618F
:1025C000204600F033F820680169C943090609D4A0
:1025D000C168C943090605D46FF080010161204636
:1025E000FFF736FE20680169C943490609D4C1686E
:1025F000C943490605D46FF040010161204600F04F
:102600001FF820680169C94389060BD4C168C94312
:10261000890607D46FF0200101612046BDE87040B3
:10262000FFF717BE70BD7047704700000068034990
:10263000884201D1FFF78EBA7047000000100040B9
:10264000704770B5040004D094F83D00002510B127
:1026500006E0012070BD84F83C50204600F022F8CE
:10266000242084F83D002068C16821F40051C16035
:10267000204600F0D3FC2068016921F490410161FB
:102680002068416921F02A0141612068C16841F454
:102690000051C1602564202084F83D0084F83E008C
:1026A000002070BD10B586B0044614216846FDF7C1
:1026B00058FE14492068884221D11348002102683D
:1026C00042F010020260006800F0100005900E4811
:1026D0001438026842F001020260006800F0010054
:1026E00005904FF4C06000900220CDE90101032065
:1026F00003900720049069460448FEF7A7FE06B041
:1027000010BD0000001001404438024000000240AB
:10271000FEE701684A69D24352050FD46FF4806224
:102720004A61002140F8301F202242738173026900
:1027300042F00402026101730120704700207047DB
:102740002DE9F84F0446C06A1E4693460D4621689F
:102750000A6842F480620A60082807D0012805D080
:1027600010F5803F02D0206B112804D12068016849
:1027700041F4807101604FF001195B460022494627
:102780002046009600F0C6F84FF4007840B120686B
:102790000068C00501D5C4F840800320BDE8F88F6B
:1027A0002069DFF884A0B0F5804F0FD006202168A3
:1027B00000EAD51747F0F000086133465A460AF19F
:1027C0000601204600F0DAF858BB03E0E8B240F01A
:1027D00001001CE02168E8B2086133465A465146C0
:1027E000204600F0CBF8E0B920684169816900918A
:1027F000016841F4807101605B4600224946204631
:10280000009600F087F80028C1D147F0F100216858
:10281000086133465A465146204600F0AFF800287A
:10282000BCD00120BAE7000002000100F8B5044660
:10283000C06A1E460D461746082807D0012805D055
:1028400010F5803F02D0206B122804D12068016867
:1028500041F480710160134600224FF001112046BF
:10286000009600F057F840B120680068C00502D516
:102870004FF4007020640320F8BD2069B0F5804F4C
:102880000ED00620216800EAD51040F0F000086163
:1028900033463A460B49204600F070F878B902E01A
:1028A00005F0FE0000E0E8B2216808610549334602
:1028B0003A46891F204600F061F80028DCD001204C
:1028C000F8BD00000800010070B516460D4604462C
:1028D0000DE02046FFF71DFF08B1012070BD681C08
:1028E00005D0FEF7B3FE801BA84207D835B120689B
:1028F0004069C0434007ECD4002070BD002044F87C
:10290000300F20216173A073216941F02001216102
:102910002073E2E72DE9F0471E4690460D46044637
:10292000C1F30747DDF8209008E0701C06D0FEF7E1
:102930008DFEA0EB0900B0420FD876B12068012FC0
:1029400018D0806925EA00000004000C14D0002192
:102950004145EAD00020BDE8F087002044F8300F60
:1029600020216173A073216941F02001216120734E
:102970000120F0E74069E5E70121E9E72DE9F047AB
:102980009A4691460E46044600254FF02008C1F3B2
:10299000074725E020684069C043400514D42068FB
:1029A000016841F40071016021686FF48060486142
:1029B000256384F83D8084F83E50206C40F004008C
:1029C000206484F83C501FE0B9F1FF3F08D0FEF7C7
:1029D0003DFEA0EB0A0149450CD8B9F1000F09D022
:1029E0002068012F13D0806926EA00000004000C43
:1029F0000BD0CFE744F8305F84F80D80A5732069D1
:102A000040F02000206125730120BDE8F087406977
:102A1000EAE72DE9F041002590460E4604462027BE
:102A200017E04069C043C0060CD454F8301B6FF067
:102A30001000486144F810596777A577206A206232
:102A4000257717E0FEF702FEA0EB0800B04208D899
:102A50003EB120684169C9434906E2D40020BDE87F
:102A6000F08144F8305F6773A573206940F020005F
:102A7000206125730120F2E770B516460D46044625
:102A80000DE02046FFF745FE08B1012070BD681C2F
:102A900005D0FEF7DBFD801BA84207D835B12068C2
:102AA0004069C0430006ECD4002070BD002044F80B
:102AB000300F20216173A073216941F02001216151
:102AC0002073E2E77FB50024144800940194029437
:102AD00011490394C0E9001484600461047680F80D
:102AE00020400F49C0E90A140125C561C46080F87F
:102AF00030404561FDF79DFF08B1FDF7EFFE0A206C
:102B0000CDE90005694602940448FDF7E9FE002876
:102B100001D0FDF7E3FE7FBD002001401C36002000
:102B20000100000F00B587B01C2206496846FDF77A
:102B3000F1FB0021684607F009FA0349086007B075
:102B400000BD0000343E01080800002070B5274891
:102B500086B00024016841F080010160016801F045
:102B600080010591016841F004010160016801F0F4
:102B700004010591016841F010010160016801F054
:102B800010010591016841F008010160016801F040
:102B900008010591016841F001010160016801F03F
:102BA00001010591016841F0020101600068104EC9
:102BB00000F002000590012240213046FEF741FD61
:102BC000402000900125CDE9015469463046039428
:102BD000FEF73CFC80200090CDE901546946304668
:102BE0000394FEF733FC06B070BD0000303802409D
:102BF000000002400D4810B50B4901600C494160CE
:102C000000214FF480428160C0E90312416181617B
:102C1000C1610162FEF720FD002803D0BDE810402D
:102C2000FDF75CBE10BD000000540040C835002018
:102C3000A0860100FEB5484CC020251D2070A820AC
:102C400060706F20A0700A20E070FF20287068700C
:102C50000027A8702E1DEF7037707770B770F7706F
:102C6000394638460FF002F8208841BA0A04A178A4
:102C700042EA0123E27844BA2404134344EA0124DB
:102C80001B06A4B243EA042344BA40BA000440EA53
:102C90000120E4B243EA04231043A5F1100143EA02
:102CA00010600860288841BA0A04A97844BA42EA48
:102CB0000123EA782404134344EA01241B06A4B246
:102CC00043EA042344BA40BA000440EA0120E4B2D3
:102CD00043EA04231043A5F10C0143EA10600860A5
:102CE000308841BA0A04B17844BA42EA0123F27842
:102CF0002404134344EA01241B06A4B243EA042338
:102D000044BA40BA000440EA0120E4B243EA042392
:102D1000104343EA1060A5F10801A5F1080308601B
:102D20000E480F490097CDE901101A1F111F0D48D9
:102D300006F0A0FC0B4806F0B7FE0A4890F8290000
:102D40004007084803D5BDE8FE4006F007BFBDE8D0
:102D5000FE4006F0AFBE0000180000203D1E010836
:102D6000A9470008DC03002010B586B000241748EE
:102D7000009401940294039404941349059401600F
:102D80005321C0E901144FF6FF71C0E903148461B7
:102D9000FFF7A8FA08B1FDF7A1FD4FF480500090AD
:102DA00069460A48FFF720FB08B1FDF797FD049438
:102DB00004A906480594FFF74DFA002801D0FDF755
:102DC0008DFD06B010BD00000004004080350020DD
:102DD0000C4810B50A4901604FF4E131416000210F
:102DE00081600C22C160C0E904128161C161FFF7FA
:102DF00028FC002803D0BDE81040FDF76FBD10BDD2
:102E000000100140F4340020FEE77047FFF712FF86
:102E1000012006F0F3FEFBE710B5502080F3118887
:102E2000BFF34F8FBFF36F8F10F070FE18B10449DE
:102E30004FF080500860002080F3118810BD000022
:102E400004ED00E030B593B030216846FDF789FA13
:102E500014210CA8FDF785FA1A480025016841F0F5
:102E600080510160006800F08050119016480168A0
:102E700041F4804101600068022400F48040119018
:102E800001200090000401908001CDE90640082057
:102E900008904FF4A870CDE9090404200B9068460F
:102EA000FFF720F80CA90F2081E831004FF4A05063
:102EB0000F90E002109005210CA8FEF703FF13B05D
:102EC00030BD0000403802400070004002480168F8
:102ED00041F470010160704788ED00E00148FFF7A0
:102EE000EFBA000038350020F0B50268254C264DB9
:102EF000264E274F274B4FF0804CA04209D060450B
:102F000007D0A84205D0B04203D0B84201D09842C1
:102F100004D122F0700E4A6842EA0E02A0421BD091
:102F2000604519D0A84217D0B04215D0B84213D08E
:102F3000984211D0184DA8420ED0184DA8420BD07F
:102F4000174DA84208D0174DA84205D0164DA842EB
:102F500002D0164DA84203D122F44075CA682A4314
:102F60004D6922F080022A4302608A68C2620A68C0
:102F70008262A04201D0984201D109690163012116
:102F80004161F0BD00000140000400400008004025
:102F9000000C00400004014000400140004401409A
:102FA0000048014000180040001C00400020004084
:102FB00010B5846842EA032224F47F440A43224382
:102FC000826010BD826822F070020A4342F007015D
:102FD0008160704710B5036A046A24F0010404623A
:102FE000846924F0F00444EA021423F00A020A433C
:102FF0008461026210BD10B5036A23F010030362FE
:103000008369046A23F4704343EA023224F0A00384
:1030100043EA01118261016210BD000070B50446EF
:1030200000680169E26821F440511143016121699E
:10303000A068E26908436169114308432168CA68CE
:1030400049F20C639A430243CA6020684169A2694D
:1030500021F440711143416131492068884202D016
:103060003049884202D1FEF7FDFE01E0FEF7EAFE9C
:10307000E2690023192164253226B2F5004F626807
:1030800028D0A0FB0101930F9200FDF7FBF8014649
:10309000B0FBF5F06FF01802504301EB800006EB37
:1030A0000010B0FBF5F000F0F002B1FBF5F002EB20
:1030B0000012B1FBF5F06FF01803584301EB8000EC
:1030C00006EB0010B0FBF5F000F00F002168104493
:1030D000886070BDA0FB010192185B41FDF7D2F83A
:1030E0000146B0FBF5F00201B1FBF5F06FF01803FB
:1030F000584301EB800006EBC000B0FBF5F000F098
:10310000F80002EB4002B1FBF5F0584301EB800000
:1031100006EBC000B0FBF5F000F00700D6E70000BA
:103120000010014000140140FEE700000FB4054B01
:1031300010B503A9044A029800F03CF810BC5DF8F1
:1031400014FB0000B5490008780100200FB4084BBB
:1031500010B504A902AA039800F02CF8044602A9AD
:10316000002000F003F9204610BC5DF814FB0000BD
:103170006D3300080907090E002804DB00F1E02088
:1031800080F80014704700F00F0000F1E02080F894
:10319000141D704702E008C8121F08C1002AFAD1A6
:1031A00070477047002001E001C1121F002AFBD1C7
:1031B000704700002DE9FF4F8BB09A460F46054639
:1031C000002606E025280BD052460D9990476D1C2D
:1031D000761C28780028F5D10FB03046BDE8F08F76
:1031E0000024A0460122604900E0044315F8013F95
:1031F000203B02FA03F00842F7D128782E2817D195
:1032000015F8010F44F004042A280ED06FF02F02A5
:103210002878A0F1300109290AD808EB880102EBCF
:10322000410100EB01086D1CF2E757F8048B6D1C9F
:10323000287869283ED006DC0028CDD063280BD042
:10324000642804D136E0732810D075284BD052463C
:103250000D999047761C85E017F8040B8DF8000057
:1032600000208DF80100E946012003E057F8049B97
:103270004FF0FF3061074FF0000401D40AE0641CF6
:1032800044450DDA8442FADB19F804100029F6D11E
:1032900006E0641C8442FCDB19F804100029F8D114
:1032A000264404E019F8010B52460D999047641E1C
:1032B000F8D257E001CF4FF00A0B002802DA404263
:1032C0002D2102E0210504D52B218DF824100121A8
:1032D00003E0E10705D02021F7E70DF1200908916F
:1032E0000CE00021F9E701CF4FF00A0BF9E759464E
:1032F000FDF74FF801F1300209F8012D0028F6D151
:10330000ADEB090000F1200B600701D44FF001087C
:10331000D84502DDA8EB0B0000E000208046002429
:1033200006E009A85246005D0D999047641C761C82
:1033300008988442F5DB04E0302052460D9990470E
:10334000761CB8F10001A8F10108F5DC05E019F8D8
:10335000010B52460D999047761CBBF10001ABF171
:10336000010BF4DC6D1C34E7092801000A68531CCA
:103370000B601070704700002DE9F04790460E4634
:1033800004006FF0050555D004F11400814608F0E3
:10339000BAFC00284ED0EF1F002E3DD0B8F1000F30
:1033A00006D032A340F22A223DA147A0FFF7BEFE7D
:1033B0002078616A05F0BEF905004FF0FF383DD076
:1033C0006E6008F0B7FB2946484608F092FCA0B3AF
:1033D0006C680021204608F0B5FF002120460CF063
:1033E0000BFC002120460DF047F900221146204633
:1033F0000BF036FC0021204609F024FC0020686018
:1034000005F11000044608F051FC204608F06EFC5F
:10341000284605F03DFB1FE0384603F01BFF014640
:10342000484608F066FC28B9636A1BB100221146C1
:10343000204698472846BDE8F0870FE0384603F05D
:1034400009FF0146484608F054FC28B9636A1BB1DD
:1034500000221146204698474046ECE7636A1BB1BC
:1034600000221146204698470020E4E72E2E2F4DDB
:103470006964646C6577617265732F5468697264FE
:103480005F50617274792F4C7749502F7372632F9C
:103490006170692F6170695F6D73672E6300000052
:1034A000657870656374206E6577706362203D3D5A
:1034B000204E554C4C206F7220657272203D3D208D
:1034C0004552525F4F4B0000417373657274696FD0
:1034D0006E2022257322206661696C656420617408
:1034E000206C696E6520256420696E2025730A00B2
:1034F0002DE9F041884607460024174D08F07AFB75
:1035000005EB0411096841B108F09CFB641C042C14
:10351000F4DB4FF0FF30BDE8F08105EB04152F60C0
:1035200008F090FB00266E60A87B002806D00BA355
:1035300040F20E2216A11EA0FFF7F8FD2E8138786A
:103540000121B1EB101F02D15FEA080000D0012079
:103550006881AE812046DEE7947300202E2E2F4D29
:103560006964646C6577617265732F54686972640D
:103570005F50617274792F4C7749502F7372632FAB
:103580006170692F736F636B6574732E6300000045
:10359000736F636B6574735B695D2E73656C6563D4
:1035A000745F77616974696E67203D3D203000006B
:1035B000417373657274696F6E20222573222066D1
:1035C00061696C6564206174206C696E6520256496
:1035D00020696E2025730A0008B54FF47A720092B4
:1035E0000B46024646210248FEF7FAF808BD0000E5
:1035F000C835002001B582B04FF47A7000900123E5
:1036000002AA46210148FEF7DBF90EBDC8350020AD
:1036100070B50D4601784FF0FF342A2907D1427862
:10362000302A04D0312A04D0322A0FD02EE018A13B
:1036300014E01C49C01C01F00BFA002801DA1AA1A1
:103640000CE01DA12846FFF781FD1FE0807830289F
:1036500009D031280CD032280FD018A12846FFF706
:1036600075FD204670BD0A2128460FF059FD0DE07A
:103670000A2128460FF044FD08E001F0C3F9C0F527
:103680008050020B10A12846FFF760FD002070BD9E
:103690006461746120666F726D6174206572720A74
:1036A00000000000000000202A21636F6E66696739
:1036B000206572720A0000002A2A24007363616484
:1036C00061206572720A00002A32324D3A25642464
:1036D0000000000008B51C4E1C4C002541F2883744
:1036E0004FF4FA781948FCF7C3FF607A60B9706844
:1036F000012809D17078E179884205D902F0CCFB24
:10370000384608F039FA02E04046FDF7DFFA6D1C52
:10371000042DE7DB0120FFF76DFF0720FFF76AFFAD
:103720002020FFF767FFB420FDF7D0FA00200090BB
:1037300002216846FFF750FFBDF8000040BA6081E3
:103740006420FDF7C3FAC8E7000000207C010020D8
:1037500070B505460C46880706D009A34FF4B6722B
:1037600013A11BA0FFF7E2FC08F044FAA96809685E
:103770002160A9680C60BDE8704008F063BA0000E1
:103780002E2E2F4D6964646C6577617265732F54BA
:10379000686972645F50617274792F4C7749502F59
:1037A0007372632F636F72652F6D656D702E63008A
:1037B0006D656D705F667265653A206D656D207030
:1037C000726F7065726C7920616C69676E656400F8
:1037D000417373657274696F6E20222573222066AF
:1037E00061696C6564206174206C696E6520256474
:1037F00020696E2025730A0070B5044608F0FAF9B6
:103800000546A0680468002C0FD021680160A0075D
:1038100006D008A34FF48C7212A11BA0FFF786FC00
:10382000284608F00FFA204670BD284608F00AFA2C
:10383000002070BD2E2E2F4D6964646C6577617217
:1038400065732F54686972645F50617274792F4C8C
:103850007749502F7372632F636F72652F6D656D9B
:10386000702E63006D656D705F6D616C6C6F633A97
:10387000206D656D702070726F7065726C7920615B
:103880006C69676E65640000417373657274696F7B
:103890006E2022257322206661696C656420617444
:1038A000206C696E6520256420696E2025730A00EE
:1038B0002DE9F0470F46040006D13FA34FF4DC7218
:1038C0004AA14EA0FFF732FC08F094F9002666608A
:1038D0002772217F41F0010121776578667008F039
:1038E000B1F9636A7BB10022042120469847636ADC
:1038F0004BB10022114620469847636A1BB1002253
:10390000022120469847384603F0A4FC804604F183
:103910001000814608F0F7F918B14146484608F012
:10392000E8F904F11400814608F0EDF918B14146B8
:10393000484608F0DEF9012D0FD0042D0DD0032DDF
:103940000BD0206A002834D0BDE8F0471AA340F21B
:10395000F71234A129A0FFF7E9BB217FC1F3800052
:1039600001F0FB012177002823D1206A30B912A38E
:103970004FF4F37232A121A0FFF7D8FB206A042D87
:1039800008D00771206A05680C35284608F0F8F958
:1039900010B108E00671F5E707A340F2EF122FA17E
:1039A00016A0FFF7C3FB28462662BDE8F04708F0E3
:1039B000E4B9BDE8F08700002E2E2F4D6964646CD9
:1039C0006577617265732F54686972645F506172C4
:1039D00074792F4C7749502F7372632F6170692F60
:1039E0006170695F6D73672E63000000636F6E6EB8
:1039F00020213D204E554C4C000000004173736562
:103A00007274696F6E2022257322206661696C656D
:103A100064206174206C696E6520256420696E20C5
:103A200025730A00636F6E6E2D3E63757272656E4C
:103A3000745F6D7367203D3D204E554C4C00000077
:103A4000636F6E6E2D3E63757272656E745F6D731B
:103A50006720213D204E554C4C000000696E617678
:103A60006C6964206F705F636F6D706C6574656402
:103A70005F73656D00000000002802DC41421129DF
:103A800001DB052070470249A1EB80000068704708
:103A9000943E010870B5094D0646002404EB44002D
:103AA00005EBC000017D29B18068B04202D12046FB
:103AB00000F036F9641C0A2CF0DB70BDDCAA002093
:103AC0002DE9F74F84B04FF00A0B00240646DA4682
:103AD0005F46D94602940194CDF80040514904EB69
:103AE000440001EBC008039098F814500A2F1DD031
:103AF000002D2AD0012D08D0022D06D24AA340F273
:103B0000231257A166A0FFF711FB9EB13168D8F8C8
:103B1000040081420ED1069820B1D8F8081006980A
:103B2000814207D1204607B0BDE8F08F002DE1D1DA
:103B300027460AE0012D16D0022D06D3B8F8120050
:103B40000099884201D3A2460090641C24B20A2C3A
:103B5000C4DB059881074FF0FF30E4D40A2F16D05C
:103B600018DA3C463EE02F49039851F8300000280F
:103B7000B8F8120005D002998842E6D3A146029017
:103B8000E3E701998842E0D3A3460190DDE7059978
:103B9000C907C8D05146BAF10A0F0EDA0C462148BF
:103BA00001EB440150F8310080B11FA340F26D12C7
:103BB00045A13BA0FFF7BAFA08E05946BBF10A0F4E
:103BC00003DB4946B9F10A0FADDA0C460A2C06DBD5
:103BD00015A340F27F1242A131A0FFF7A7FA2046B9
:103BE00000F09EF80A2C06DB0FA340F283123CA1E2
:103BF0002BA0FFF79BFA0B4804EB440100EBC10537
:103C0000287D30B108A34FF4C2723AA124A0FFF777
:103C10008DFA0EB130686860002068820698A8604E
:103C200080E70000DCAA00202E2E2F4D6964646C12
:103C30006577617265732F54686972645F50617251
:103C400074792F4C7749502F7372632F636F7265AD
:103C50002F697076342F6574686172702E6300006E
:103C60007374617465203D3D204554484152505F56
:103C700053544154455F50454E44494E47207C7C47
:103C8000207374617465203E3D2045544841525074
:103C90005F53544154455F535441424C450000002A
:103CA000417373657274696F6E20222573222066DA
:103CB00061696C6564206174206C696E652025649F
:103CC00020696E2025730A006172705F7461626CF6
:103CD000655B695D2E71203D3D204E554C4C0000CA
:103CE00069203C204152505F5441424C455F53494A
:103CF0005A4500006172705F7461626C655B695D5A
:103D00002E7374617465203D3D20455448415250E6
:103D10005F53544154455F454D50545900000000D5
:103D200070B5074C00EB4005002654F8350018B17B
:103D300006F0B0FD44F8356004EBC500067570BDB3
:103D4000DCAA00202DE9F04385B00D00074609D01C
:103D50007C684FF480782088404539D12079062846
:103D600036D109E01CA340F28A2229A12CA0FFF73A
:103D7000DDF905B0BDE8F0836079042828D16088BA
:103D8000082825D1D4F80E000490A169686820B1F4
:103D9000814202D10126334601E00026022304F1CC
:103DA0000802914604A9284600F0A2FBE08840459D
:103DB0000ED16EB1022204ABCDE90232291DCDE94C
:103DC000001905F1220319464A46284600F090FAE8
:103DD000384606F05FFDCCE72E2E2F4D6964646CEB
:103DE0006577617265732F54686972645F506172A0
:103DF00074792F4C7749502F7372632F636F7265FC
:103E00002F697076342F6574686172702E630000BC
:103E10006E6574696620213D204E554C4C000000B3
:103E2000417373657274696F6E2022257322206658
:103E300061696C6564206174206C696E652025641D
:103E400020696E2025730A00FEB515460E46040053
:103E500006D143A340F21E324FA153A0FFF766F9EB
:103E600036B93FA340F21F3259A14FA0FFF75EF9C8
:103E700035B93BA34FF4487258A14BA0FFF756F950
:103E80002146286800F0A8FF08B1584B3FE0286899
:103E9000C0F303110E2925D0A168636800EA01026E
:103EA0000B409A4208D080B2A0F57E41A93903D0D8
:103EB000E068B0B304F10C054D4B4E481A7802EBA4
:103EC000420100EBC1010F7D022F2ED38F68A74264
:103ED0002BD12F6849688F4227D13146204600F008
:103EE0008BF8FEBD01208DF8040000208DF8050040
:103EF0005E208DF80600687801AB00F07F008DF839
:103F00000700A8788DF80800E8788DF809004FF4CC
:103F10000060009004F122023146204600F0C8FB08
:103F2000FEBDFFE76FF00300FAE7002202EB42015B
:103F300000EBC1010F7D022F08D38F68A74205D186
:103F40002F6849688F4201D11A70C6E7521CD2B25D
:103F50000A2AEBD332462946204600F0D5F8DFE79F
:103F60002E2E2F4D6964646C6577617265732F54D2
:103F7000686972645F50617274792F4C7749502F71
:103F80007372632F636F72652F697076342F657457
:103F9000686172702E6300006E6574696620213D51
:103FA000204E554C4C000000417373657274696F6C
:103FB0006E2022257322206661696C65642061741D
:103FC000206C696E6520256420696E2025730A00C7
:103FD0007120213D204E554C4C00000069706164F9
:103FE000647220213D204E554C4C0000843E010857
:103FF00060010020DCAA00202DE9F84306461546A2
:1040000088461C4802EB450100EBC104207D0228D4
:1040100006D219A340F2EE2225A131A0FFF786F8BF
:10402000144A05EB4501207D02EBC1050C35022841
:1040300013D1608A0327B0F58E7F04D9211D304645
:1040400000F010FA07E0B0F5877F06D32A46211D5D
:10405000304600F00DFA00B927754FF4006000906B
:104060002B4606F122024146304600F021FBBDE816
:10407000F8830000DCAA00202E2E2F4D6964646CAA
:104080006577617265732F54686972645F506172FD
:1040900074792F4C7749502F7372632F636F726559
:1040A0002F697076342F6574686172702E6300001A
:1040B0006172705F7461626C655B6172705F69648C
:1040C000785D2E7374617465203E3D2045544841EF
:1040D00052505F53544154455F535441424C450044
:1040E000417373657274696F6E2022257322206696
:1040F00061696C6564206174206C696E652025645B
:1041000020696E2025730A002DE9FC5F824622306B
:1041100001900E46086814464FF0FF374FF0000B31
:10412000514600F059FE80B93068C0F303110E29E2
:104130000BD056B148B1524601213046FFF7C0FCC2
:10414000050005D540B2BDE8FC9F6FF00F00FAE70F
:104150007F2D06D337A340F2C13244A147A0FEF71A
:10416000E5FF05F0FF094F4909EB490801EBC805D8
:10417000287D00280ED0012808D0022806D22DA3C1
:1041800040F2CD3248A13DA0FEF7D0FFBBF1000FB9
:1041900006D104E001202875C5F808A000E034B974
:1041A0003146504600F05EF90746002CCBD0287D02
:1041B0003C4E02280ED346494FF4006005F10C0333
:1041C00081F80090009021465046019A00F070FA64
:1041D00007462DE001282BD1254640F2F1376889AA
:1041E0002989884207D1286828B112A33A4639A103
:1041F00022A0FEF79BFF287B400607D522464FF4FE
:1042000020710E2006F07CF9044605E02D68002D93
:10421000E5D1204606F0D6FC44B156F8380008B186
:1042200006F038FB46F83840002701E04FF0FF3732
:10423000384688E72E2E2F4D6964646C657761726D
:1042400065732F54686972645F50617274792F4C82
:104250007749502F7372632F636F72652F69707681
:10426000342F6574686172702E6300007479706514
:10427000206F766572666C6F77000000417373651E
:104280007274696F6E2022257322206661696C65E5
:1042900064206174206C696E6520256420696E203D
:1042A00025730A00DCAA00206172705F7461626C81
:1042B000655B695D2E7374617465203D3D205045DA
:1042C0004E44494E47206F7220535441424C4500A2
:1042D000600100206E6F207061636B6574207175E2
:1042E0006575657320616C6C6F77656421000000F3
:1042F0002DE9FF4F81B09846DDE90FA9DDF838B010
:1043000006004FF0000706D12CA340F2574239A116
:104310003CA0FEF70BFF4FF420721C210E2005F08D
:10432000A3FE050046D068891C2806D223A340F2CC
:1043300062423EA133A0FEF7F9FE6C68119802F0CC
:10434000E7F8E08096F82800062806D01BA340F284
:10435000694243492BA0FEF7E9FED8F80010A1609E
:10436000B8F80400A081DAF80010C4F81210BAF806
:104370000400E082DBF80000C4F80E00D9F8000069
:10438000A0614FF48070208008206080062020719A
:104390000420607140F60600DDE902230090294602
:1043A000304600F085F9284606F074FA384605B024
:1043B000BDE8F08F4FF0FF30F9E700002E2E2F4DB3
:1043C0006964646C6577617265732F54686972649F
:1043D0005F50617274792F4C7749502F7372632F3D
:1043E000636F72652F697076342F657468617270BF
:1043F0002E6300006E6574696620213D204E554C89
:104400004C000000417373657274696F6E20222541
:104410007322206661696C6564206174206C696E2A
:104420006520256420696E2025730A006368656332
:104430006B20746861742066697273742070627591
:10444000662063616E20686F6C642073747275639C
:1044500074206574686172705F68647200000000A7
:104460009C410108014A00F003B80000843E0108A5
:104470007FB5064D031D0124CDE90035CDE90214B9
:104480001E331946FFF734FF04B070BD8A3E0108A1
:1044900070B5164D002400BF04EB440005EBC002CC
:1044A000117DF1B1508A401C80B25082B0F5967FE8
:1044B0000AD2012906D003290AD004290AD00129E9
:1044C0000BD00EE0052808D32046FFF729FC08E0B2
:1044D000042000E00220107503E0111D9068FFF732
:1044E000C1FF641C0A2CD7DB70BD0000DCAA0020D1
:1044F000F8B5044690F828001F4616460D460628D3
:1045000006D020A340F2A9122CA135A0FEF70EFE82
:104510009DB1286888B1214600F05EFC68B9287812
:10452000C0F303100E2808D0224639462846FFF76C
:10453000C7FA002804DA40B2F8BD6FF00F00F8BDEA
:1045400000EB40013048022300EBC1021375946078
:104550003368D360B38813820023538250F83150FC
:1045600075B140F831304FF400600090334604F1EB
:1045700022022946204600F09BF8284606F08AF9D8
:104580000020F8BD2E2E2F4D6964646C6577617232
:1045900065732F54686972645F50617274792F4C2F
:1045A0007749502F7372632F636F72652F6970762E
:1045B000342F6574686172702E6300006E657469D3
:1045C000662D3E6877616464725F6C656E203D3D68
:1045D000204554485F4857414444525F4C454E0083
:1045E000417373657274696F6E2022257322206691
:1045F00061696C6564206174206C696E6520256456
:1046000020696E2025730A00DCAA00202DE9F04104
:10461000044640890E270D460E283CD9E07B18B988
:1046200095F82C00401CE073606801788689CA0701
:1046300014D0012905D006221C49FBF79DFE48B184
:104640000CE0417851B980785E2807D1607B40F05A
:10465000100002E0607B40F008006073082E03D079
:10466000B6F5C16F17D10DE095F82900000712D5F6
:104670003946204606F0F4FA68B92946204600F08B
:10468000F3FC10E095F82900000704D539462046D0
:1046900006F0E6FA18B1204606F0FCF803E02946D9
:1046A0002046FFF74FFB0020BDE8F081843E010863
:1046B0002DE9F04104461F4690460E46069801F04B
:1046C00027FF05460E21304605F06AFC18B16FF051
:1046D0000100BDE8F0817068858139680160B988A2
:1046E0008180D8F80020C0F80620B8F80410418175
:1046F00094F82800062806D006A34FF4997213A157
:104700001FA0FEF713FD31462046A269BDE8F04127
:10471000104700002E2E2F4D6964646C657761721E
:1047200065732F54686972645F50617274792F4C9D
:104730007749502F7372632F6E657469662F6574A5
:104740006865726E65742E63000000006E657469A2
:10475000662D3E6877616464725F6C656E206D756E
:104760007374206265203620666F722065746865F8
:10477000726E65745F6F757470757421000000004F
:10478000417373657274696F6E20222573222066EF
:1047900061696C6564206174206C696E65202564B4
:1047A00020696E2025730A0010B5040006D10BA302
:1047B00040F22B220EA112A0FEF7B8FC732084F861
:1047C0002A00742084F82B00174860611748A06104
:1047D000204601F07FFB002010BD00002E2E2F533D
:1047E00072632F65746865726E657469662E630006
:1047F0006E6574696620213D204E554C4C000000CA
:10480000417373657274696F6E202225732220666E
:1048100061696C6564206174206C696E6520256433
:1048200020696E2025730A00493E0008B560000823
:10483000104E04464FF0FF373946306805F054FB00
:104840000028F9D10C4807F063FA204601F0D2FBAA
:1048500005000AD022692146904710B1284606F08B
:1048600019F8054807F068FAECE7034807F064FA1E
:10487000E2E7000024000020B00000202DE9F04114
:104880000E4604005ED0A569002D0DDA07F0B2F9DE
:10489000A569002D06DA0EB96D1EA561BDE8F041CF
:1048A00007F0D0B907F0CEF9284600F0FFF8040071
:1048B00048D0012707F09EF980460120052E19D225
:1048C000DFE806F0030A0E1316002089401C00B230
:1048D0002081012834DC14E02089401E20812FE053
:1048E000618901B1002760810BE00020608127E031
:1048F000A08106E014A34FF41F6220A123A0FEF7BD
:1049000015FCA07BE0B1DFB1B4F90800002801DD9F
:10491000012700E00027608908B1012600E0002699
:10492000A08908B1012400E00024404607F08AF97C
:104930002346324639462846BDE8F04107F02AB8FA
:104940004046ABE7BDE8F0812E2E2F4D6964646CC4
:104950006577617265732F54686972645F50617224
:1049600074792F4C7749502F7372632F6170692FC0
:10497000736F636B6574732E63000000756E6B6EEE
:104980006F776E206576656E740000004173736505
:104990007274696F6E2022257322206661696C65CE
:1049A00064206174206C696E6520256420696E2026
:1049B00025730A0038B504468DF8000069460320C7
:1049C000ABBE204638BD2DE9F0410E46044607F047
:1049D00011F90021676861602568216007F032F9EC
:1049E000380005D016B105F055FF01E003F042FD97
:1049F000002D04D02846BDE8F04103F0DDBFBDE83E
:104A0000F081000070B50026344635460F48FCF7AB
:104A1000C1F864210D48FCF767F870B1761C3220AC
:104A2000FCF754F90948FCF733F9032C01DA032E9B
:104A3000ECDB032C07D0284670BD0448FBF7F6FFDB
:104A40000544641CEBE795FBF4F070BD1C360020B8
:104A500010B50278742A0BD142783A2A08D102792B
:104A6000262A05D14279682A02D182793A2A02D0CF
:104A70004FF0FF3010BD8278C378303A02EB8204E9
:104A80006FF02F0202EB440423440B70037AC079C9
:104A9000303800EB800002EB4000184448700249B7
:104AA00001204860002010BD0000002010B50DF06E
:104AB0003FFB002803D1024909200860002010BDF7
:104AC0006C0100200A46032100F0F4B82DE9FE4FE6
:104AD0008A4644490446D1F8088098F80000000747
:104AE000850E142D79D36089042876D36068007808
:104AF000002872D0082870D1486901F11407C0F36A
:104B000003120E2A69D08946096800F065F9002869
:104B100063D12089082860D305F10E010E46204696
:104B200005F03EFA002830D02089411989B2884228
:104B300053D84FF420720E2005F096FA06004CD0A0
:104B4000718905F10800814216D32A4641467068F2
:104B5000FBF7E0FB2946304606F082F8002806D035
:104B600021A3B6222EA13CA0FEF7E0FA04E02146E4
:104B7000304605F013FD18B1304605F08BFE2CE0F1
:104B8000204605F087FE34460CE03146204606F00C
:104B900067F8002806D014A3C72239A12EA0FEF77B
:104BA000C5FA1AE029462046666805F0F9F9A0B969
:104BB00060683968FF22C160D9F8101001610021D6
:104BC000317071800272418101228DE806040A462B
:104BD000FF233946204600F017FB2046BDE8FE4F74
:104BE00005F058BED47300202E2E2F4D6964646CDE
:104BF0006577617265732F54686972645F50617282
:104C000074792F4C7749502F7372632F636F7265DD
:104C10002F697076342F69636D702E630000000079
:104C200069636D705F696E7075743A206D6F766937
:104C30006E6720722D3E7061796C6F616420746FB5
:104C40002069636D702068656164657220666169C2
:104C50006C65640A00000000417373657274696FCB
:104C60006E2022257322206661696C656420617460
:104C7000206C696E6520256420696E2025730A000A
:104C800069636D705F696E7075743A2072657374D4
:104C90006F72696E67206F726967696E616C2070F0
:104CA0002D3E7061796C6F6164206661696C65642A
:104CB0000A0000002DE9FF479146884606464FF45A
:104CC00020722421222005F0CFF9050031D0688917
:104CD000242806D218A34FF4B47225A12FA0FEF702
:104CE00025FA6C6877681C2284F8008084F80190AB
:104CF0004FF00008A4F80480A4F806806868716882
:104D00000830FBF707FBF868039003A800F08CFC61
:104D100060B1A4F802800122CDF80080CDE9012025
:104D2000FF2303AA0021284600F06EFA284605F06A
:104D3000B1FDBDE8FF8700002E2E2F4D6964646C25
:104D40006577617265732F54686972645F50617230
:104D500074792F4C7749502F7372632F636F72658C
:104D60002F697076342F69636D702E630000000028
:104D7000636865636B20746861742066697273741C
:104D800020706275662063616E20686F6C642069B4
:104D9000636D70206D657373616765004173736542
:104DA0007274696F6E2022257322206661696C65BA
:104DB00064206174206C696E6520256420696E2012
:104DC00025730A000A460B21FFF774BFEFF3058035
:104DD000002800D001207047421C12D088B191F801
:104DE000292092070BD54B68834208D0896800EAD6
:104DF00001020B409A4202D10143491C01D000201C
:104E000070470120704700002DE9F74F88B0044635
:104E1000099800251426008CAF1F1438C11700EB29
:104E20005170C0F3CF00039060680690017801F0E4
:104E30000F01052903D038460BB0BDE8F08F61891A
:104E4000142907D25BA34FF43F7269A16FA0FEF74C
:104E50006DF9F0E7C08801F05BFBC0F30C0100F4D2
:104E6000005002910790208914381FFA80F88EE0D4
:104E700003984FF6FF7101EAC0004146404500D952
:104E8000084604904FF4207214210E2005F0ECF82F
:104E90005FEA000A7ED0BAF80A00142806D245A3B9
:104EA0004FF4497263A159A0FEF740F91422DAF8D1
:104EB00004000699FBF72EFADAF804000590049F27
:104EC00035E06089811B8DB2B04206D239A340F231
:104ED0002D3260A14DA0FEF729F9AF4200D23D4628
:104EE0001DB3052003F074FA5FEA000957D060682B
:104EF0004B463044CDE9000541222946002005F00B
:104F000039FA5FEA000B50D0204605F05BFE5549A8
:104F1000C9E904145946504605F048FA781B0704BD
:104F20003F0C06D000262468CBE724680026002F1B
:104F3000C7D1701986B20998008C14384045029880
:104F4000C0F30C0001DB079909B140F4005001F0F7
:104F5000DFFA0599C8800498143080B201F0D8FABD
:104F600005994880059800214181099851460A9A7F
:104F700043699847504605F08DFC0499A8EB010061
:104F80001FFA80F8DDE90201084480B20290B8F10E
:104F9000000F00E006E07FF46BAF00204CE75046C6
:104FA00005F078FC4FF0FF3046E7484600F032FC51
:104FB000F5E700002E2E2F4D6964646C65776172F1
:104FC00065732F54686972645F50617274792F4CF5
:104FD0007749502F7372632F636F72652F697076F4
:104FE000342F6970345F667261672E6300000000C1
:104FF0006970345F6672616728293A20706275664D
:1050000020746F6F2073686F727400004173736552
:105010007274696F6E2022257322206661696C6547
:1050200064206174206C696E6520256420696E209F
:1050300025730A0074686973206E65656473206166
:10504000207062756620696E206F6E6520706965DC
:1050500063652100702D3E6C656E203E3D20706FB3
:1050600066660000015E00082DE9F04745680746C6
:105070000E4628780421B1EB101F03D0384605F006
:1050800009FC77E000074FEA9068688801F040FA71
:1050900004463889A04203D92146384605F0F8FC79
:1050A00079894145EAD33889A042E7D3B8F1140F92
:1050B000E4D32969DFF81C91C1F303100E28C9F865
:1050C0001410EA68C9F8102005D0304600F086F8C0
:1050D00050B1344619E096F82900C00702D0706834
:1050E0000028F6D1002410E099F8140000247F284D
:1050F0000BD03948046806E0B44203D0204600F0E3
:105100006DF810B92468002CF6D13146D9F810009A
:10511000FFF762FE0028B1D199F81000C0F3031028
:105120000E28ABD0002CA9D0E88830F0C00005D004
:10513000384600F035F907001CD07D68C9F80850E2
:10514000C9E90046297838460907890EA9F80C10E4
:10515000414605F085FD687A012818D0062811D04F
:1051600011280AD04D462146D9F81400FFF734FE25
:1051700090B11EE00020BDE8F087314638460DF0C2
:1051800091F819E03146384607F0F4FE14E0314654
:105190003846FFF79BFC0FE0287DC0F303100E2874
:1051A00007D04146384605F05BFC02213846FFF740
:1051B00089FC384605F06EFB0021C9F80010C9F8DB
:1051C0000410C9F80810A9F80C10C9F81010C9F893
:1051D0001410CFE7D4730020FC00002010B590F825
:1051E0002910C9070CD0416851B1064A52698A4258
:1051F00004D001461046FFF7EFFD08B1012010BDB5
:10520000002010BDD4730020FEB5DDE90954089ECE
:105210001AB109B10F6807B9211D0096CDE90154F3
:1052200000F002F8FEBD00002DE9F84F0546DDE96B
:105230000BA8807BDDF828B01F461646894601285A
:1052400006D02FA34FF455723AA13DA0FDF76EFF93
:105250006FF00104002E35D01421284604F0A0FE82
:10526000002832D168896C68142806D224A34FF430
:1052700062723DA132A0FDF759FF277284F809A0A0
:10528000306820614520207084F801B0288901F041
:105290003FF9414F60804FF0000AA4F806A038881B
:1052A00001F036F9A0803888401C3880B9F1000F31
:1052B00005D0D9F80000E060A4F80AA00CE0374857
:1052C0000068F8E76889142802D22046BDE8F88F04
:1052D00068686E4600690090B8F8200040B12989DE
:1052E000814205D9324641462846FFF78DFDEDE75C
:1052F000D8F814304046324629469847E6E7000081
:105300002E2E2F4D6964646C6577617265732F541E
:10531000686972645F50617274792F4C7749502FBD
:105320007372632F636F72652F697076342F6970A3
:10533000342E6300702D3E726566203D3D203100A5
:10534000417373657274696F6E2022257322206623
:1053500061696C6564206174206C696E65202564E8
:1053600020696E2025730A00636865636B2074688A
:10537000617420666972737420706275662063615F
:105380006E20686F6C64207374727563742069702A
:105390005F68647200000000620100201440010890
:1053A0002DE9F05F45688346287800F00F00052856
:1053B0007DD1E88801F0ACF8C004070C688801F0E2
:1053C000A7F829780907890E814270D8401A1FFA78
:1053D00080F8584605F08BF86A4C06462088304421
:1053E0000A2809D93146284600F0AAFC00285ED0D8
:1053F000208830440A28E8D8A14664684FF0000AA3
:105400000CE06069E968884207D1A069296988428F
:1054100003D1A089A988884203D02468002CF0D148
:1054200006E02CB1E88801F073F8C0041BD025E039
:10543000042002F0CDFF04000AD13146284600F0D6
:105440007FFCB04233DB042002F0C2FF0400CED068
:105450002021FAF786FF0F20E077D9F804102160A9
:10546000C9F8044004E0E08901F052F8C00405D016
:105470001422294604F10800FAF74CFFA87940F3FA
:1054800040156D1C08D007EB080080B2B84263D30A
:105490004FF6EB7188425FD82A465946204600F005
:1054A00001FA411C58D0B9F80020324400E064E011
:1054B000A9F8002035B107EB0801A183A17F41F0D5
:1054C0000101A177012845D1A08B1422143087B2A5
:1054D000606804F10801456828462E68FAF71AFF4B
:1054E000384601F015F86880A5F806A0A5F80AA0CE
:1054F000656809E014213046776805F0B1FB314654
:10550000284604F053FF3E68002EF3D1D9F804106A
:105510004E468C4205D1002105E00868A04202D029
:1055200001460029F9D1204600F0E0FA284604F0AF
:10553000DEFF04463088A04206D213A340F29B222D
:1055400020A127A0FDF7F2FD3088001B30802846FF
:10555000BDE8F09F0020FBE7606870B9D9F804004F
:10556000844206D008A340F2AB2227A11CA0FDF77D
:10557000DDFD0021204600F0B9FA584605F08AF911
:10558000E8E70000640100202E2E2F4D6964646C52
:105590006577617265732F54686972645F506172D8
:1055A00074792F4C7749502F7372632F636F726534
:1055B0002F697076342F6970345F667261672E636D
:1055C0000000000069705F72656173735F706275DF
:1055D00066636F756E74203E3D20636C656E0000DF
:1055E000417373657274696F6E2022257322206681
:1055F00061696C6564206174206C696E6520256446
:1056000020696E2025730A006E6F742066697273BC
:1056100074616C74686F756768206A75737420654F
:105620006E7175657565640070B50146144813E0C8
:1056300090F82920D3070FD053070DD543685BB1ED
:1056400084680D68234005EA04069E4216D092073E
:1056500002D4C268954211D000680028E8D10948F8
:10566000006850B190F82920D30706D0520704D51E
:10567000426812B109787F2900D1002070BD000076
:10568000FC000020000100202DE9FF41884606466D
:105690006F460578FAF728FE03461A68505D202801
:1056A00062D100240A20302D06D116F8015F782D32
:1056B00008D0582D06D00820515D202904D010288C
:1056C00006D016E0102011E0303D04FB00540DE040
:1056D00081EA810C5FEA0C6C0BD5090701D56121C9
:1056E00000E04121691A0A3141EA041416F8015F09
:1056F000E2E72E2D10D01DB11868405DC00734D0F0
:105700006846381A012101EBA000052839D2DFE8EC
:1057100000F02B3E0A13200003A8874224D210C7B2
:1057200016F8015FB9E7B4F1807F1DD20098FF2819
:105730001AD844EA00642AE0B4F5803F14D20098F5
:10574000FF2811D80199FF290ED8000640EA014030
:1057500015E0FF2C08D80098FF2805D80199FF29EB
:1057600002D80299FF2903D9002004B0BDE8F081D6
:105770000199000640EA0140029940EA01200443F1
:1057800005E008A3F92216A118A0FDF7CFFCB8F197
:10579000000F04D0204600F0B9FEC8F80000012038
:1057A000E3E700002E2E2F4D6964646C657761720B
:1057B00065732F54686972645F50617274792F4CFD
:1057C0007749502F7372632F636F72652F697076FC
:1057D000342F6970345F616464722E6300000000CE
:1057E000756E68616E646C6564000000417373657A
:1057F0007274696F6E2022257322206661696C6560
:1058000064206174206C696E6520256420696E20B7
:1058100025730A0010B5040006D106A34FF43172B7
:1058200013A116A0FDF782FC2146BDE8104005201B
:1058300002F05ABD2E2E2F4D6964646C657761723B
:1058400065732F54686972645F50617274792F4C6C
:105850007749502F7372632F636F72652F6970766B
:10586000342F6970345F667261672E630000000038
:105870007020213D204E554C4C0000004173736553
:105880007274696F6E2022257322206661696C65CF
:1058900064206174206C696E6520256420696E2027
:1058A00025730A002DE9F05F4C68064693460F46C3
:1058B00000254FF00108608800F02AFE21784FF0A3
:1058C000FF3A0907890E814231D8A0EB0109E0882F
:1058D00000F01EFEC0047C68010C0020206001EB7B
:1058E000090083B2A180E3808B4220D3726829E053
:1058F0005068B0F804C0614515D222606DB1B5F8AA
:1059000006C0614513D38088834210D82F60A088D9
:10591000844506D04FF0000803E08088834206D813
:1059200077608AB12EE002D0C288914202D25046FE
:10593000BDE8F09F25B1EA88624501D04FF000082C
:1059400002680546002AD3D195B1E888A18888422B
:1059500006D92AA34FF4DB7237A13FA0FDF7E6FB7F
:105960002F60E888A18888420CD04FF0000809E039
:10597000706830B121A34FF4DF7241A136A0FDF76A
:10598000D5FB7760BBF1000F02D1B07FC007CFD04D
:10599000B8F1000F30D07268002A2DD0506880888E
:1059A000002829D12168204629B14C68C088A188E7
:1059B0008842F7D020E0B8F1000F1DD032B90FA314
:1059C00040F2DF123CA124A0FDF7B0FB70684068F4
:1059D000A04206D109A34FF4F07237A11EA0FDF733
:1059E000A5FB206830B105A34FF4F17236A11AA0CF
:1059F000FDF79CFB01209BE7002099E72E2E2F4D01
:105A00006964646C6577617265732F546869726448
:105A10005F50617274792F4C7749502F7372632FE6
:105A2000636F72652F697076342F6970345F6672A8
:105A300061672E6300000000636865636B20667217
:105A400061676D656E747320646F6E2774206F7666
:105A500065726C6170000000417373657274696FE8
:105A60006E2022257322206661696C656420617452
:105A7000206C696E6520256420696E2025730A00FC
:105A80006E6F2070726576696F75732066726167DC
:105A90006D656E742C2074686973206D7573742045
:105AA000626520746865206669727374206672612D
:105AB000676D656E7421000073616E69747920638F
:105AC0006865636B0000000076616C6964617465F1
:105AD0005F646174616772616D3A6E6578745F705E
